:100000000C9448010C9465010C9465010C94110545
:100010000C9465010C9465010C9465010C946501C8
:100020000C9465010C9465010C9406090C9440092C
:100030000C9465010C9465010C9465010C946501A8
:100040000C9465010C9465010C9465010C94650198
:100050000C9465010C9465010C9465010C94650188
:100060000C9465010C9465010C9465010C94650178
:100070000C9465010C9465010C9465010C94650168
:100080000C9465010C9465010C9465010C94650158
:100090000C9465010C9465010C9465010C94650148
:1000A0000C9465010C9465010C946501A708A408E3
:1000B000A1089E089B089808950892088F088C084C
:1000C00089088608830880087D087A0877087408FC
:1000D00071086E086B086808650862085F085C08AC
:1000E00059085608530850084D084A08470844085C
:1000F00041083E083B083808350832082F082C080C
:1001000029082608230820081D081A0817081408BB
:1001100011080E080B08080805080208FF07FC076D
:10012000F907F607F307F007ED07EA07E7070D0AF7
:10013000000952204D6F746F72203D3A2000094C27
:10014000204D6F746F72203D3A2000090009706FD6
:10015000743A20006F666600206F6E0042757474FA
:100160006F6E204C3A090009006F666600206F6EC2
:1001700000427574746F6E20523A09004E6F206D04
:100180006F64652E2E2E3F20090054414E4B204DAA
:100190004F4445212009004D6172696F204B617207
:1001A0007420524143494E47210900446F75626CE7
:1001B00065204A6F79737469636B2044726976694C
:1001C0006E67090053696E676C65204A6F797374B6
:1001D00069636B2044726976696E670900000100EB
:1001E0000011021200020000230243000300006617
:1001F0000204010309046A0212020309047E0206D2
:10020000030309048602080001C11201803601813E
:10021000361201000202000010C0167A040001012B
:1002200002030109024300020100C0320904000078
:10023000010202010005240010010524010101044E
:100240002402060524060001070582031000400968
:10025000040100020A000000070503024000000735
:100260000584024000000403090412034A002E0022
:1002700020004600690065006E006500000006036E
:100280004D0032000000080334003100300000004F
:1002900011241FBECFEFDAE0DEBFCDBF11E0A0E03A
:1002A000B1E0E8EDF3E202C005900D92AC30B10789
:1002B000D9F711E0ACE0B1E001C01D92A133B10764
:1002C000E1F70E94A3040C94770F0C9400008F9226
:1002D0009F92AF92BF92CF92DF92EF92FF920F93D5
:1002E0001F93CF93DF93EC014B01E0900101F0905D
:1002F0000201009103011091040160E070E080E8C8
:100300009FE3A80197010E940A10D62EC72EB82E8F
:10031000A92EBE01882777FD8095982F0E94A210F4
:10032000A80197010E942E110E946F10EB016091AD
:10033000270170912801882777FD8095982F0E94CA
:10034000A210D601F5012B2F3A2F4F2F5E2F0E94BE
:100350002E110E946F10C60FD71FB401882777FD9A
:100360008095982F0E94A210A80197010E942E113B
:100370000E946F107B0160912501709126018827F2
:1003800077FD8095982F0E94A210D601F5012B2FA2
:100390003A2F4F2F5E2F0E942E110E946F106E0D6C
:1003A0007F1DD0932801C09327017093260160938D
:1003B00025018FEF693C78072CF488EC90E0861BD0
:1003C000970B06C06833710544F0CB0188539F4FEB
:1003D00090938B0080938A0004C010928B0010923F
:1003E0008A008FEFC93CD80754F488EC90E08C1B4E
:1003F0009D0B90938D0080938C00469812C0C8335B
:10040000D1053CF0C853DF4FD0938D00C0938C00D2
:1004100007C010928D0010928C00C733D1050CF0EC
:10042000469A6733710514F0479A05C08FEF693C0F
:1004300078070CF44798DF91CF911F910F91FF90AF
:10044000EF90DF90CF90BF90AF909F908F900895E6
:10045000209113013091140180910E01813019F423
:1004600088EA9DEF06C080910D018130E1F484E8B7
:1004700093E090932A018093290190932C0180931B
:100480002B01C901880F991F820F931F62E070E052
:100490000E94B5118091290190912A012FEF853C8E
:1004A0009207FCF00DC010922A01109229011092BF
:1004B0002C0110922B0180E090E060E070E02DC0F4
:1004C000161617063CF480912B0190912C01861B87
:1004D000970B10C0680F791F70932A016093290150
:1004E00014C0161617065CF480912B0190912C0114
:1004F000860F971F90932C0180932B0106C0861BBB
:10050000970B90932A018093290160912B017091A0
:100510002C018091290190912A010E946701089580
:100520006F927F928F929F92AF92BF92CF92DF9203
:10053000EF92FF920F931F93CF93DF9360910F0180
:1005400070911001C0911101D091120181E0653FBD
:1005500078073CF48EEF6C30780734F0660F771F25
:1005600005C067EE73E002C069E17CEF81E0C53F42
:10057000D8073CF48EEFCC30D80734F0CC0FDD1F19
:1005800005C0C7EED3E002C0C9E1DCEF882777FDE4
:100590008095982F0E94A2105B016C01BE018827F4
:1005A00077FD8095982F0E94A2107B018C01C601D7
:1005B000B5012AE939E949E55FE30E942E113B01C3
:1005C0004C01C801B70128E939E949E15EE30E941D
:1005D0002E119B01AC01C401B3010E940B100E94BB
:1005E0006F103B014C01C801B7012AE939E949E51F
:1005F0005FE30E942E117B018C01C601B50128E941
:1006000039E949E15EE30E942E119B01AC01C8016A
:10061000B7010E940B100E946F109B01AC01C30137
:10062000B9010E946701DF91CF911F910F91FF9057
:10063000EF90DF90CF90BF90AF909F908F907F9082
:100640006F90089520910F01309110014091150194
:1006500050911601CA01880F991F840F951F62E0FF
:1006600070E00E94B511AB0161E0253F36075CF4F4
:100670008EEF2C303807CCF0C901880F991F18165F
:1006800019061CF00DC087EE93E01416150624F42D
:10069000BC01641B750B22C0BC01840F951F1EC0DA
:1006A0006FEF8E3C960774F402C089E19CEF14163C
:1006B000150624F4BC01640F751F10C0BC01841B17
:1006C000950B0CC0141615062CF4CA01820F931F4B
:1006D000B90104C0B901641B750BC9010E9467010F
:1006E000089520910F013091100140911301509114
:1006F0001401CA01880F991F840F951F62E070E0F2
:100700000E94B51181E0253F380754F49EEF2C304C
:100710003907A4F0220F331F121613061CF009C06C
:1007200027EE33E016161706ECF0C901860F971F67
:1007300017C09FEF2E3C39076CF402C029E13CEF53
:10074000161617061CF4620F731F10C0C901861B12
:10075000970B06C0161617062CF4CB01820F931FB9
:10076000B90105C0C901861B970BBC01C9010E94D4
:10077000670108950F931F93CF93DF9310920C019D
:10078000809118018B3069F08C301CF4813091F429
:1007900005C0803449F0843669F409C084EC91E0E6
:1007A0000BC08BEA91E008C087E991E005C08AE8B8
:1007B00091E002C08CE791E00E94A80A81E791E0F5
:1007C0000E94A80A80910D01813019F48DE691E014
:1007D00002C089E691E00E94A80A87E691E00E94A3
:1007E000A80A8CE591E00E94A80A80910E01813050
:1007F00019F488E591E002C084E591E00E94A80A1E
:100800000FE011E0C1E0D0E08DE491E00E94A80A81
:10081000CE010E94E00A8BE491E00E94A80AF80150
:10082000819191918F010E94E00A2296C930D105F1
:1008300059F78EE391E00E94A80A80918A00909176
:100840008B000E94E00A81E391E00E94A80A809157
:100850008C0090918D000E94E00A8EE291E00E944F
:10086000A80ADF91CF911F910F9108950E94DE0693
:100870006A9A729806C08FE99FE00197F1F700C06D
:1008800000000E94F7068823B1F36A9A729A0895CD
:1008900087EF93E0909389008093880010928B00FB
:1008A00010928A0010928D0010928C00E1E8F0E026
:1008B00080818B7F80838081826080838081816062
:1008C0008083808180618083808188608083E0E88C
:1008D000F0E080818260808380818160808380817C
:1008E0008062808380818F7E808380818860808326
:1008F00080818B7F8083089581E792E090939900B7
:1009000080939800E1E9F0E08081846080838081B9
:100910008D7F808380818D7F808380818F7E8083A7
:10092000808188608083E0E9F0E080818D7F808332
:1009300080818E7F808308953E9A3F9A469847989B
:10094000269A279A0895FF920F931F93CF93DF93D0
:1009500080E880936100109261000E949C04809165
:100960000001882311F00E9436040E9448040E946E
:100970007C040E94400581E065E24CE00E94E405B1
:1009800080E090E060E070E00E946701C0E0D0E0AD
:100990000AE010E074E0F72EC19B13C0C19A2196C3
:1009A000CE01B8010E94B511009729F46A9A8EB160
:1009B0008F258EB904C083E0C83ED80711F4C0E08B
:1009C000D0E080910C01882339F3809118018B309D
:1009D00069F08C301CF4813091F405C0803461F0F2
:1009E000843669F406C00E94710313C00E9422037A
:1009F00010C00E9490020DC00E9428020AC080E030
:100A000090E060E070E00E9467016A9A8EB18F25E5
:100A10008EB980910001882309F4BECF0E94BA03E9
:100A2000BBCF1F920F920FB60F9211242F933F93BB
:100A30004F935F936F937F938F939F93AF93BF93E6
:100A4000EF93FF936E9A8EB190E489278EB98DE073
:100A500091E06CE00E943C0681E080930C01FF91E4
:100A6000EF91BF91AF919F918F917F916F915F9126
:100A70004F913F912F910F900FBE0F901F9018959F
:100A8000589A599A5A9A8CE08093B800E9E6F0E0B7
:100A900080818062808380818F7E8083EA9A7894CF
:100AA000089584E88093BC008091BC0087FFFCCF50
:100AB0008091BB00089584E98093BC00089520E0F4
:100AC00030E08091BC0087FD06C02F5F3F4F83E080
:100AD000293E3807B1F781E093E0283E390709F451
:100AE00080E008958093BB0084E88093BC000E945E
:100AF0005F05882321F08091B900887F089580E008
:100B000008951F93DF93CF930F92CDB7DEB7182FC1
:100B100084EA8093BC0069830E945F056981882311
:100B200071F0812F880F662331F08F5F0E9472056C
:100B3000883451F404C00E947205803229F484E99B
:100B40008093BC0080E001C081E00F90CF91DF91E5
:100B50001F910895CF93DF93C62FD42F60E00E949A
:100B60008105882379F08C2F0E947205882351F02B
:100B70008D2F0E947205882329F084E98093BC00A0
:100B800081E001C080E0DF91CF910895CF93DF93A2
:100B9000C82FD62F60E00E948105882389F08D2F11
:100BA0000E947205882361F084E98093BC008C2F39
:100BB00061E00E948105882319F00E94510501C05F
:100BC00080E0DF91CF910895DF93CF9300D00F9213
:100BD000CDB7DEB74B836A8389830E94400594EAD0
:100BE0009093BC0089816A814B819091BC0097FFF2
:100BF000FCCF90E59093BB0094E89093BC0090915B
:100C0000BC0097FFFCCF9091B900987F903229F4F7
:100C100084E98093BC0080E029C091E09093BB0000
:100C200094E89093BC009091BC0097FFFCCF809318
:100C3000BB0084E88093BC008091BC0087FFFCCFA0
:100C40006093BB0084E88093BC008091BC0087FF68
:100C5000FCCF4093BB0084E88093BC008091BC0033
:100C600087FFFCCF84E98093BC0081E00F900F9058
:100C70000F90CF91DF91089524EA2093BC0020913A
:100C8000BC0027FFFCCF21E52093BB0024E8209384
:100C9000BC002091BC0027FFFCCF2091B900287F29
:100CA0002834A9F024EC2093BC002091BC0027FF3D
:100CB000FCCF2091BB00261751F4FC0120E030E06E
:100CC000772767FD70956150704044EC10C084E94F
:100CD0008093BC0080E008954093BC005091BC001C
:100CE00057FFFCCF5091BB0051932F5F3F4F26170A
:100CF000370794F344E84093BC004091BC0047FFA1
:100D0000FCCF4091BB00820F931FFC01408384E91C
:100D10008093BC0081E00895F89494EA9093BC001D
:100D20009091BC0097FFFCCF90E59093BB0094E8B6
:100D30009093BC009091BC0097FFFCCF9091B900BC
:100D4000987F903231F484E98093BC00789480E0FD
:100D5000089593E09093BB0094E89093BC00909129
:100D6000BC0097FFFCCF8093BB0084E88093BC005D
:100D70008091BC0087FFFCCF862F972FFC0180E07D
:100D800090E0552747FD509524E80AC031913093F3
:100D9000BB002093BC003091BC0037FFFCCF019614
:100DA000841795079CF384E98093BC00789481E0D4
:100DB00008958091E80080FFFCCF089581E0809342
:100DC000D70080EA8093D80082E189BD09B400FE93
:100DD000FDCF80E98093D8001092E00010922D01A1
:100DE00010922E018CE08093E20078940895809117
:100DF0002D0108959FB7F89480912D01882339F033
:100E000083E08093E9008091E80085FD03C09FBFE7
:100E10008FEF08958091F1002091E80025FD03C037
:100E20002BE62093E8009FBF08959FB7F894809128
:100E30002D01882331F083E08093E9008091F20056
:100E400001C080E09FBF089580912D01882371F03B
:100E50008FB7F89493E09093E9009BE602C09093DB
:100E6000E8002091E80025FDFACF8FBF089590910A
:100E70002D019923D1F19FB7F89424E02093E90044
:100E800020913001222341F02091E80025FD02C08D
:100E90009FBF2BC0109230012091E400275E34E008
:100EA0004091E80045FD12C09FBF9091E400921769
:100EB00021F481E08093300118C090912D01992395
:100EC000B1F09FB7F8943093E900EACF8093F10036
:100ED0008091E80085FD03C08AE38093E80085E007
:100EE00080932F019FBF80E008958FEF08958FEFCB
:100EF000089590912D019923D9F09FB7F89424E09B
:100F00002093E9002091E80025FD03C09FBF8FEFEB
:100F100008958093F1008091E80085FD03C08AE385
:100F20008093E80085E080932F019FBF80E00895C3
:100F30008FEF0895CF93DC0180912D01882309F470
:100F40001AC12FB7F89484E08093E90080913001B2
:100F5000882309F405C18091E80085FD02C02FBFF8
:100F60000AC110923001FCC08091E400875E90912C
:100F7000E80095FD13C02FBF9091E400981721F46D
:100F800081E080933001F7C090912D01992309F4FD
:100F9000F2C02FB7F894C093E900E9CF8091F20036
:100FA000E52FE81B8E2F90E06817790708F4E62FED
:100FB0006E1B7109F0E0E134F10508F0C5C0EA5A92
:100FC000FF4FEE0FFF1F0590F491E02D09948D91D6
:100FD0008093F1008D918093F1008D918093F100C9
:100FE0008D918093F1008D918093F1008D9180938C
:100FF000F1008D918093F1008D918093F1008D919E
:101000008093F1008D918093F1008D918093F10098
:101010008D918093F1008D918093F1008D9180935B
:10102000F1008D918093F1008D918093F1008D916D
:101030008093F1008D918093F1008D918093F10068
:101040008D918093F1008D918093F1008D9180932B
:10105000F1008D918093F1008D918093F1008D913D
:101060008093F1008D918093F1008D918093F10038
:101070008D918093F1008D918093F1008D918093FB
:10108000F1008D918093F1008D918093F1008D910D
:101090008093F1008D918093F1008D918093F10008
:1010A0008D918093F1008D918093F1008D918093CB
:1010B000F1008D918093F1008D918093F1008D91DD
:1010C0008093F1008D918093F1008D918093F100D8
:1010D0008D918093F1008D918093F1008D9180939B
:1010E000F1008D918093F1008D918093F1008D91AD
:1010F0008093F1008D918093F1008D918093F100A8
:101100008D918093F1008D918093F1008D9180936A
:10111000F1008D918093F1008D918093F1008D917C
:101120008093F1008D918093F1008D918093F10077
:101130008D918093F1008D918093F1008D9180933A
:10114000F1008D918093F1008D918093F100809159
:10115000E80085FD02C04093E80030932F0104C0F1
:10116000C4E050E44AE335E06115710509F0FCCEB6
:101170002FBF80E001C08FEFCF9108958FB7F89413
:1011800090912F01992341F094E09093E9009AE324
:101190009093E80010922F018FBF0895809109016C
:1011A000089580910A01089580910B01089580911E
:1011B0002E0108959FB7F89420912D01222339F034
:1011C00022E02093E9003091E80035FD03C09FBF85
:1011D0008FEF089531EA3093F10030E23093F1005F
:1011E0001092F1001092F1001092F1001092F100B3
:1011F0002093F1001092F1008093F1001092F10021
:101200008AE38093E8009FBF80E008951F920F92C9
:101210000FB60F9211248F939F938091E10010924B
:10122000E10083FF11C01092E90091E09093EB0080
:101230001092EC0092E19093ED0098E09093F00012
:1012400010922D0110922E0182FF13C080912D016A
:10125000882379F080912F01882359F08150809361
:101260002F01882331F484E08093E9008AE380939E
:10127000E8009F918F910F900FBE0F901F901895CF
:101280001F920F920FB60F921124EF92FF920F93BD
:101290001F932F933F934F935F936F937F938F93FE
:1012A0009F93AF93BF93EF93FF93DF93CF930F92EF
:1012B000CDB7DEB71092E9008091E80083FF2DC121
:1012C0002091F1003091F100E090F100FF24409175
:1012D000F100942F80E0E82AF92A0091F10010E053
:1012E0004091F100942F80E0082B192B6091F100C0
:1012F000A091F10082EF8093E800363009F059C0E8
:1013000084EE91E09C0125503040FC0137974591D7
:1013100054914E155F05F9F4F90145915491401728
:101320005107C9F42E5F3F4FF901859194912E5FCB
:101330003F4FF9012491462F50E07A2F60E0462B71
:10134000572B4F3F510519F010F04FEF50E0421767
:1013500050F4242F08C00796295F3F4FF2E08E30EB
:101360009F0799F6DAC0AEEF4091E80050E0BA016D
:101370006570707061157105B9F342FDD1C0322FEF
:10138000213108F030E1AC01632F07C0FA014F5F53
:101390005F4FE491E093F10061506623B9F7830F4A
:1013A000911D231BA093E8002223F1F63031E1F2D6
:1013B000B7C0353051F48EEF8093E8000E94D90613
:1013C0008E2D80688093E300ABC0393051F5222325
:1013D00009F0A3C0E0922D0110922E0110922F016E
:1013E0008EEF8093E80041E087E092E04093E900CF
:1013F000FC010196E491E093EB00EE2369F09C017F
:101400002F5F3F4FFC0184918093EC00C90101964E
:10141000F90124912093ED004F5F453039F78EE1BB
:1014200077C0383051F4203809F077C00E94D906CF
:1014300080912D018093F10048C0313279F4213A36
:1014400009F06BC00E94D906E5E0F1E0819180933C
:10145000F10041E0EC30F407C9F737C03032A1F4B5
:10146000213209F05AC08091E80082FFFCCFE5E00C
:10147000F1E08091F100819381E0EC30F807C9F749
:101480008BEF8093E80021C0323241F4213209F021
:1014900044C0E0922E010E94D90617C03323C9F43C
:1014A00029830E94D9062981223851F40093E9004A
:1014B0009091EB0081E095FF80E01092E90001C07F
:1014C00080E08093F1001092F1008EEF8093E800AD
:1014D00027C0313011F0333001F52230F1F4E1143E
:1014E000F104D9F40F77802F81508430B0F48EEF5F
:1014F0008093E8000093E900333079F089E180932C
:10150000EB0081E090E002C0880F991F0A95E2F796
:101510008093EA001092EA0003C081E28093EB001E
:101520000F90CF91DF91FF91EF91BF91AF919F917C
:101530008F917F916F915F914F913F912F911F916B
:101540000F91FF90EF900F900FBE0F901F90189586
:101550001F93CF93DF93EC01FE0121961491112389
:1015600049F01A3019F48DE00E943707812F0E944C
:101570003707F2CFDF91CF911F9108958A3010F491
:1015800090E301C097E3890F0E9437070895CF9336
:10159000C82F82958F700E94BE0A8C2F8F700E9478
:1015A000BE0ACF910895CF93C82F892F0E94C70AF2
:1015B0008C2F0E94C70ACF9108950E94C70A0895F0
:1015C000EF92FF920F931F93DF93CF93CDB7DEB7C8
:1015D00027970FB6F894DEBF0FBECDBF8E010F5F09
:1015E0001F4F27E0F80111922A95E9F7B8014AE068
:1015F00050E00E947A0F88E0E82EF12CEC0EFD1EE0
:10160000F80181918F01882311F00E9437070E1590
:101610001F05B1F727960FB6F894DEBF0FBECDBFFA
:10162000CF91DF911F910F91FF90EF900895EF926E
:10163000FF920F931F93DF93CF9300D000D00F92B0
:10164000CDB7DEB78E010F5F1F4F25E0F801119275
:101650002A95E9F7B8014AE050E00E94F40F96E0BD
:10166000E92EF12CEC0EFD1EF80181918F018823EB
:1016700011F00E9437070E151F05B1F70F900F905C
:101680000F900F900F90CF91DF911F910F91FF90CE
:10169000EF900895EF92FF920F931F93DF93CF93F4
:1016A000CDB7DEB72B970FB6F894DEBF0FBECDBF18
:1016B0008E010F5F1F4F2BE0F80111922A95E9F779
:1016C000A8012AE030E00E949B0F2CE0E22EF12CD2
:1016D000EC0EFD1EF80181918F01882311F00E940C
:1016E00037070E151F05B1F72B960FB6F894DEBF1E
:1016F0000FBECDBFCF91DF911F910F91FF90EF9063
:101700000895EF92FF920F931F93DF93CF93CDB77E
:10171000DEB72A970FB6F894DEBF0FBECDBF8E019D
:101720000F5F1F4F2AE0F80111922A95E9F7A801EF
:101730002AE030E00E94CF0F3BE0E32EF12CEC0ECC
:10174000FD1EF80181918F01882311F00E94370757
:101750000E151F05B1F72A960FB6F894DEBF0FBE1F
:10176000CDBFCF91DF911F910F91FF90EF90089522
:10177000CF93DF93D82FC62F843008F05EC064303B
:1017800008F05BC00E9440058FEF95EAAEE0815003
:101790009040A040E1F700C0000089E665E70E94A4
:1017A000C605883609F049C089E66BE641E00E942B
:1017B000AA054D2F440F440F440F89E66CE10E94A7
:1017C000AA054C2F440F440F440F89E66BE10E9499
:1017D000AA0589E667E342E00E94AA058EE162E07D
:1017E00040E00E94AA0589E667E340E00E94AA055E
:1017F00089E664E34EE10E94AA0589E667E641E0D6
:101800000E94AA0589E664E24DE10E94AA0589E6E4
:1018100065E24EE90E94AA0589E666E243E00E947D
:10182000AA0589E667E246E90E94AA0589E66AE612
:1018300040E20E94AA0581E001C080E0DF91CF91E3
:101840000895EF92FF920F931F93DF93CF93CDB73D
:10185000DEB765970FB6F894DEBF0FBECDBF8C0123
:101860007E010894E11CF11C9EE489E6692F9D8BA2
:101870000E94C605D7018D937D019D8991509A33B1
:10188000A1F7FE01319686859785D80115969C9320
:101890008E931497868197811B969C938E931A97AB
:1018A00089819A8151969C938E93509780899189D2
:1018B00013969C938E9312978085918519969C938D
:1018C0008E931897828193811F969C938E931E9777
:1018D0008289938911969C938E938285938517961E
:1018E0009C938E931697848195811D969C938E93DD
:1018F0001C9781E065960FB6F894DEBF0FBECDBF92
:10190000CF91DF911F910F91FF90EF900895EF928B
:10191000FF920F931F93DF93CF93CDB7DEB7279737
:101920000FB6F894DEBF0FBECDBF8C017E010894C8
:10193000E11CF11C90E489E6692F9F830E94C60593
:10194000D7018D937D019F8191509A33A1F7FE01BC
:10195000319689819A81D80115969C938E9314971C
:101960008281938113969C938E93129784819581A3
:1019700011969C938E9381E027960FB6F894DEBF64
:101980000FBECDBFCF91DF911F910F91FF90EF90D0
:101990000895EF92FF920F931F93DF93CF93CDB7EC
:1019A000DEB727970FB6F894DEBF0FBECDBF8C0110
:1019B0007E010894E11CF11C98E489E6692F9F835D
:1019C0000E94C605D7018D937D019F81915092346D
:1019D000A1F7FE01319689819A81D80115969C93D1
:1019E0008E9314978281938113969C938E93129772
:1019F0008481958111969C938E9381E027960FB6F2
:101A0000F894DEBF0FBECDBFCF91DF911F910F9134
:101A1000FF90EF900895EF92FF920F931F93DF9343
:101A2000CF93CDB7DEB727970FB6F894DEBF0FBEC2
:101A3000CDBF8C017E010894E11CF11C9EE489E677
:101A4000692F9F830E94C605D7018D937D019F81D9
:101A500091509834A1F7FE01319689819A81D8017D
:101A600015969C938E9314978281938113969C93E1
:101A70008E9312978481958111969C938E9381E029
:101A800027960FB6F894DEBF0FBECDBFCF91DF9182
:101A90001F910F91FF90EF90089565E048E30E9439
:101AA000AA0591E0882309F490E0892F08951F93F7
:101AB000CF93DF93D82FC62F142F0E94C605C230B4
:101AC00058F4E1E0F0E002C0EE0FFF1F1A95E2F7D4
:101AD0004E2F409548230DC09C2F9251923078F4A0
:101AE00021E030E002C0220F331F1A95E2F7482FA1
:101AF000422B8D2F6C2F0E94AA0581E001C080E04F
:101B0000DF91CF911F9108951F93CF93DF93D82F2B
:101B1000C62F142F0E94C6059C2F9251923058F464
:101B2000E1E0F0E002C0EE0FFF1F1A95E2F74E2F42
:101B3000409548230BC0C23078F421E030E002C069
:101B4000220F331F1A95E2F7482F422B8D2F6C2F4F
:101B50000E94AA0581E001C080E0DF91CF911F9132
:101B60000895DF93CF930F92CDB7DEB749830E94DC
:101B7000C60590E0498102C0959587954A95E2F7A0
:101B800081700F90CF91DF91089520E030E0809137
:101B9000BC0087FD06C02F5F3F4F83E0293E38071A
:101BA000B1F781E093E0283E390709F480E0089519
:101BB0008093BB0084E88093BC000E94C50D8823FD
:101BC00021F08091B900887F089580E00895CF9337
:101BD000C82F84EA8093BC000E94C50D882351F071
:101BE0008C2F880F8F5F0E94D80D883429F484E9E8
:101BF0008093BC0080E001C081E0CF910895CF9335
:101C0000C82F84EA8093BC000E94C50D882349F048
:101C10008C2F880F0E94D80D803229F484E980939C
:101C2000BC0080E001C081E0CF910895EF92FF9267
:101C30000F931F93DF93CF93CDB7DEB760970FB6A7
:101C4000F894DEBF0FBECDBFF82EE92E8E010F5FD8
:101C50001F4F80E1F80111928A95E9F788E50E940B
:101C6000FF0D882309F463C086E30E94D80D882302
:101C700009F45DC084E98093BC00F5E8FA95F1F7BA
:101C8000000088E50E94E70D882309F450C0F801A0
:101C90009E01205F3F4F84EC8093BC009091BC007C
:101CA00097FFFCCF9091BB009193E217F307A1F748
:101CB00084E88093BC008091BC0087FFFCCF8091BA
:101CC000BB00888B84E98093BC00FE013296C7017B
:101CD000A92FBE2D035F1F4F228130E0C901807301
:101CE000907054E0880F991F5A95E1F74081840F56
:101CF000911D11969C938E93C901807C9070880FE2
:101D0000991F880F991F4181840F911D13969C93F1
:101D10008E9312972F70307015963C932E931497D4
:101D200033961696E017F107B9F681E001C080E01E
:101D300060960FB6F894DEBF0FBECDBFCF91DF9196
:101D40001F910F91FF90EF900895CF930E9440054F
:101D500088E50E94FF0D882309F4C2C080E30E9439
:101D6000D80D882309F4BCC081E00E94D80D8823D7
:101D700009F4B6C084E98093BC008FE39CE9019725
:101D8000F1F700C0000088E50E94FF0D882309F4E8
:101D9000A7C080E00E94D80D882309F4A1C080E08C
:101DA0000E94D80D882309F49BC080E00E94D80DC2
:101DB000882309F495C080E00E94D80D882309F497
:101DC0008FC080E00E94D80D882309F489C080E08C
:101DD0000E94D80D882309F483C080E00E94D80DAA
:101DE000882309F47DC080E90E94D80D882309F476
:101DF00077C0C4E9C093BC008FE39CE90197F1F779
:101E000000C0000088E50E94FF0D882309F468C027
:101E100087E00E94D80D882309F462C080E00E9408
:101E2000D80D882309F45CC081E40E94D80D882372
:101E300009F456C0C093BC008FE39CE90197F1F709
:101E400000C0000088E50E94FF0D882309F448C007
:101E50008AE10E94D80D882309F442C080E40E94E0
:101E6000D80D8823E9F180E00E94D80D8823C1F1C4
:101E7000C093BC008FE39CE90197F1F700C000001C
:101E800088E50E94FF0D882359F183E30E94D80D55
:101E9000882331F183E00E94D80D882309F1C09393
:101EA000BC008FE39CE90197F1F700C0000088E5D2
:101EB0000E94FF0D8823A1F080E30E94D80D8823A3
:101EC00079F088E00E94D80D882351F0C093BC00BF
:101ED0008FE39CE90197F1F700C0000081E001C0A9
:101EE00080E0CF91089584E98093BC000895F89430
:101EF0000C94EA11FB019F01E8944230C4F0453292
:101F0000B4F44A3029F497FB1EF4909581959F4FC5
:101F1000642F77270E94A111805D8A330CF0895DC0
:101F20008193CB010097A1F716F45DE251931082E3
:101F3000C9010C949111FA01CF93FF93EF932230D2
:101F400044F1253234F5C22FE894CA3049F497FBA6
:101F50003EF490958095709561957F4F8F4F9F4F80
:101F60002C2F332744275527FF93EF930E94C81146
:101F7000EF91FF91605D6A330CF0695D6193B90187
:101F8000CA01605070408040904051F716F4CDE295
:101F9000C19310828F919F91CF910C949111FA016E
:101FA000CF93FF93EF932230CCF02532BCF4C22FB5
:101FB0002C2F332744275527FF93EF930E94C811F6
:101FC000EF91FF91605D6A330CF0695D6193B90137
:101FD000CA01605070408040904051F710828F914C
:101FE0009F91CF910C949111FB019F01423074F0AD
:101FF000453264F4642F77270E94A111805D8A33F3
:102000000CF0895D8193CB010097A1F71082C90183
:102010000C9491115058BB27AA270ED0E5C0D6D0FA
:1020200030F0DBD020F031F49F3F11F41EF4CBC030
:102030000EF4E095E7FBC1C0E92FE7D080F3BA17B3
:10204000620773078407950718F071F49EF5FFC0C7
:102050000EF4E0950B2EBA2FA02D0B01B9019001C3
:102060000C01CA01A0011124FF27591B99F0593F07
:1020700050F4503E68F11A16F040A22F232F342F4F
:102080004427585FF3CF469537952795A795F0409D
:102090005395C9F77EF41F16BA0B620B730B840BB2
:1020A000BAF09150A1F0FF0FBB1F661F771F881F6A
:1020B000C2F70EC0BA0F621F731F841F48F48795C2
:1020C00077956795B795F7959E3F08F0B3CF9395B1
:1020D000880F08F09927EE0F97958795089504D0FB
:1020E0006894B111B5C0089598D088F09F5790F0CA
:1020F000B92F9927B751A0F0D1F0660F771F881F2D
:10210000991F1AF0BA95C9F712C0B13081F09FD06B
:10211000B1E008959CC0672F782F8827B85F39F009
:10212000B93FCCF3869577956795B395D9F73EF48B
:1021300090958095709561957F4F8F4F9F4F089533
:10214000E89409C097FB3EF4909580957095619551
:102150007F4F8F4F9F4F9923A9F0F92F96E9BB2707
:102160009395F695879577956795B795F111F8CF83
:10217000FAF4BB0F11F460FF1BC06F5F7F4F8F4FEE
:102180009F4F16C0882311F096E911C0772321F0E4
:102190009EE8872F762F05C0662371F096E8862F7C
:1021A00070E060E02AF09A95660F771F881FDAF7D3
:1021B000880F9695879597F9089597F99F6780E816
:1021C00070E060E008959FEF80EC089500240A9489
:1021D0001616170618060906089500240A94121602
:1021E0001306140605060895092E0394000C11F435
:1021F000882352F0BB0F40F4BF2B11F460FF04C0E2
:102200006F5F7F4F8F4F9F4F089557FD9058440F3A
:10221000551F59F05F3F71F04795880F97FB991F45
:1022200061F09F3F79F08795089512161306140602
:10223000551FF2CF4695F1DF08C01616170618068F
:10224000991FF1CF86957105610508940895E8946A
:10225000BB2766277727CB0197F908950BD0C4CF0A
:10226000B5DF28F0BADF18F0952309F0A6CFABCF81
:102270001124EECFCADFA0F3959FD1F3950F50E064
:10228000551F629FF001729FBB27F00DB11D639F28
:10229000AA27F00DB11DAA1F649F6627B00DA11DCE
:1022A000661F829F2227B00DA11D621F739FB00D74
:1022B000A11D621F839FA00D611D221F749F3327E4
:1022C000A00D611D231F849F600D211D822F762F7D
:1022D0006A2F11249F5750408AF0E1F088234AF07A
:1022E000EE0FFF1FBB1F661F771F881F91505040C6
:1022F000A9F79E3F510570F060CFAACF5F3FECF386
:10230000983EDCF3869577956795B795F795E795B1
:102310009F5FC1F7FE2B880F911D9695879597F9C2
:102320000895DC01FC01672F71917723E1F7329763
:1023300004C07C916D9370836291AE17BF07C8F3A0
:102340000895AA1BBB1B51E107C0AA1FBB1FA617FC
:10235000B70710F0A61BB70B881F991F5A95A9F74E
:1023600080959095BC01CD01089597FB092E072615
:102370000AD077FD04D0E5DF06D000201AF470956E
:1023800061957F4F0895F6F7909581959F4F089539
:10239000A1E21A2EAA1BBB1BFD010DC0AA1FBB1F69
:1023A000EE1FFF1FA217B307E407F50720F0A21BDB
:1023B000B30BE40BF50B661F771F881F991F1A9448
:1023C00069F760957095809590959B01AC01BD0172
:0823D000CF010895F894FFCF3E
:0C23D800010000803E00E1000000000851
:00000001FF
